:020000040800F2
:10000000000002206109000855090008A53A00080F
:1000100055090008550900085509000800000000AE
:10002000000000000000000000000000550900086A
:10003000550900080000000055090008293A000889
:100040005509000855090008550900085509000818
:100050005509000855090008550900085509000808
:10006000550900085509000855090008113600080F
:100070001D360008550900082936000835360008E5
:1000800085EC00083D2700085509000855090008BF
:1000900055090008550900085509000855090008C8
:1000A00055090008550900085509000855090008B8
:1000B00005DE000811DE00081DDE000871270008BB
:1000C000550900087D270008550900084DD600088D
:1000D00059D60008B9EA0008E5EA000819EB00085B
:1000E00055090008550900080000000055090008DE
:1000F0005509000855090008550900085509000868
:10010000550900085509000829DE000865D60008D1
:100110004DEB000881EB000855090008550900085F
:10012000550900085509000889D60008BDD6000801
:10013000B9EC0008550900085509000855090008E0
:1001400000000000000000000000000000000000AF
:10015000550900085509000855090008B5EB0008C5
:100160008927000855090008393A00085D3A000857
:1001700055090008813A000855090008550900088A
:100180005509000855090008E9EB00081DEC0008B6
:1001900071D600087DD600085509000855090008E9
:1001A00055090008550900085509000855090008B7
:1001B00005330008550900085509000855090008CD
:1001C0005509000855090008550900085509000897
:1001D0005509000855090008550900085509000887
:1001E0005509000855090008550900085509000877
:1001F0005509000855090008550900085509000867
:100200005509000855090008550900085509000856
:100210005509000855090008550900085509000846
:10022000550900085509000855090008000000009C
:10023000550900085509000800000000550900088C
:100240005509000855090008550900085509000816
:100250005509000855090008550900085509000806
:1002600055090008550900085509000855090008F6
:10027000550900085509000851EC0008000000006D
:10028000550900085509000855090008000000003C
:08029000000000005509000800
:1002980010B5054C237833B9044B13B10448AFF3B8
:1002A80000800123237010BDE0030024000000003B
:1002B800981C010808B5034B1BB103490348AFF369
:1002C800008008BD00000000E4030024981C010819
:1002D80081F0004102E000BF83F0004330B54FEAEF
:1002E80041044FEA430594EA050F08BF90EA020F5C
:1002F8001FBF54EA000C55EA020C7FEA645C7FEAEF
:10030800655C00F0E2804FEA5454D4EB5555B8BF11
:100318006D420CDD2C4480EA020281EA030382EA82
:10032800000083EA010180EA020281EA0303362D14
:1003380088BF30BD11F0004F4FEA01314FF4801CE7
:100348004CEA113102D0404261EB410113F0004FF9
:100358004FEA03334CEA133302D0524263EB4303B0
:1003680094EA050F00F0A780A4F10104D5F1200E4E
:100378000DDB02FA0EFC22FA05F2801841F10001A9
:1003880003FA0EF2801843FA05F359410EE0A5F17D
:1003980020050EF1200E012A03FA0EFC28BF4CF0AE
:1003A800020C43FA05F3C01851EBE37101F0004564
:1003B80007D54FF0000EDCF1000C7EEB00006EEB71
:1003C8000101B1F5801F1BD3B1F5001F0CD34908FB
:1003D8005FEA30004FEA3C0C04F101044FEA445252
:1003E80012F5800F80F09A80BCF1004F08BF5FEAD9
:1003F800500C50F1000041EB045141EA050130BDB9
:100408005FEA4C0C404141EB0101013C28BFB1F5CA
:10041800801FE9D291F0000F04BF01460020B1FA15
:1004280081F308BF2033A3F10B03B3F120020CDAE8
:100438000C3208DD02F1140CC2F10C0201FA0CF0C6
:1004480021FA02F10CE002F11402D8BFC2F1200C2B
:1004580001FA02F120FA0CFCDCBF41EA0C019040E1
:10046800E41AA2BF01EB0451294330BD6FEA04042A
:100478001F3C1CDA0C340EDC04F11404C4F1200215
:1004880020FA04F001FA02F340EA030021FA04F327
:1004980045EA030130BDC4F10C04C4F1200220FA7E
:1004A80002F001FA04F340EA0300294630BD21FABC
:1004B80004F0294630BD94F0000F83F4801306BF82
:1004C80081F480110134013D4EE77FEA645C18BF76
:1004D8007FEA655C29D094EA050F08BF90EA020F0D
:1004E80005D054EA000C04BF1946104630BD91EA05
:1004F800030F1EBF0021002030BD5FEA545C05D108
:100508004000494128BF41F0004130BD14F5800446
:100518003CBF01F5801130BD01F0004545F0FE41BA
:1005280041F470014FF0000030BD7FEA645C1ABFEF
:10053800194610467FEA655C1CBF0B46024650EA26
:10054800013406BF52EA033591EA030F41F4002152
:1005580030BD00BF90F0000F04BF0021704730B5D8
:100568004FF4806404F132044FF000054FF00001AD
:1005780050E700BF90F0000F04BF0021704730B56E
:100588004FF4806404F1320410F0004548BF404243
:100598004FF000013EE700BF42004FEAE2014FEA98
:1005A80031014FEA02701FBF12F07F4393F07F4F73
:1005B80081F06051704732F07F4208BF704793F076
:1005C8007F4F04BF41F40021704730B54FF4607489
:1005D80001F0004521F000411CE700BF50EA01028C
:1005E80008BF704730B54FF000050AE050EA010235
:1005F80008BF704730B511F0004502D5404261EBA5
:1006080041014FF4806404F132045FEA915C3FF4E5
:10061800D8AE4FF003025FEADC0C18BF03325FEA82
:10062800DC0C18BF033202EBDC02C2F1200300FA33
:1006380003FC20FA02F001FA03FE40EA0E0021FA58
:1006480002F11444BDE600BF53B94AB9002908BFF6
:1006580000281CBF4FF0FF314FF0FF3000F074B995
:10066800ADF1080C6DE904CE00F006F8DDF804E001
:10067800DDE9022304B070472DE9F047089D0446E0
:100688008E46002B4DD18A42944669D9B2FA82F23D
:1006980052B101FA02F3C2F1200120FA01F10CFA79
:1006A80002FC41EA030E94404FEA1C48210CBEFBB1
:1006B800F8F61FFA8CF708FB16E341EA034306FB3A
:1006C80007F199420AD91CEB030306F1FF3080F0C9
:1006D8001F81994240F21C81023E63445B1AA4B216
:1006E800B3FBF8F008FB103344EA034400FB07F7B8
:1006F800A7420AD91CEB040400F1FF3380F00A81F9
:10070800A74240F207816444023840EA0640E41BED
:1007180000261DB1D4400023C5E900433146BDE899
:10072800F0878B4209D9002D00F0EF800026C5E93B
:10073800000130463146BDE8F087B3FA83F6002E53
:100748004AD18B4202D3824200F2F980841A61EBCB
:10075800030301209E46002DE0D0C5E9004EDDE7E9
:1007680002B9FFDEB2FA82F2002A40F09280A1EBD1
:100778000C014FEA1C471FFA8CFE0126200CB1FB26
:10078800F7F307FB131140EA01410EFB03F088421F
:1007980008D91CEB010103F1FF3802D2884200F2AC
:1007A800CB804346091AA4B2B1FBF7F007FB10113E
:1007B80044EA01440EFB00FEA64508D91CEB0404DC
:1007C80000F1FF3102D2A64500F2BB800846A4EB37
:1007D8000E0440EA03409CE7C6F12007B34022FA22
:1007E80007FC4CEA030C20FA07F401FA06F31C4351
:1007F800F9404FEA1C4900FA06F3B1FBF9F8200C5E
:100808001FFA8CFE09FB181140EA014108FB0EF0A3
:10081800884202FA06F20BD91CEB010108F1FF3AF3
:1008280080F08880884240F28580A8F102086144FF
:10083800091AA4B2B1FBF9F009FB101144EA01410D
:1008480000FB0EFE8E4508D91CEB010100F1FF34B8
:100858006CD28E456AD90238614440EA0840A0FB50
:100868000294A1EB0E01A142C846A64656D353D026
:100878005DB1B3EB080261EB0E0101FA07F722FA4A
:1008880006F3F1401F43C5E9007100263146BDE873
:10089800F087C2F12003D8400CFA02FC21FA03F3D6
:1008A800914001434FEA1C471FFA8CFEB3FBF7F057
:1008B80007FB10360B0C43EA064300FB0EF69E427C
:1008C80004FA02F408D91CEB030300F1FF382FD215
:1008D8009E422DD9023863449B1B89B2B3FBF7F6BD
:1008E80007FB163341EA034106FB0EF38B4208D996
:1008F8001CEB010106F1FF3816D28B4214D9023ED7
:100908006144C91A46EA004638E72E46284605E7F4
:100918000646E3E61846F8E64B45A9D2B9EB0208C5
:1009280064EB0C0E0138A3E74646EAE7204694E755
:100938004046D1E7D0467BE7023B614432E7304688
:1009480009E76444023842E7704700BF684620F070
:1009580007018D46FEE700BF0B480C4A904208B5D8
:1009680003D0121A0A4911F005F80A480A4A9042B7
:1009780003D0121A002111F00BF803F0F5FA10F069
:10098800D5FF00F075F8FEE700000024E00300241E
:10099800CC1C0108E0030024CC310024704700BFC0
:1009A800704700BF70B51C4816460D462DED028BEA
:1009B80010F0C4FCB7EE007AF6EE007A174830EE75
:1009C800070A20EE270A00F033F916B3002414486A
:1009D80010F0B4FC1348B0EE408A10F0AFFC0E489B
:1009E80010F0ACFC0D4800F023F90C48B0EE480AB2
:1009F800DFED0D0A00F0F6F8D5E9000300EB8400FE
:100A080003EB8403013480ED000AA64283ED000A5B
:100A1800DDD1BDEC028B70BDA404002428040024A1
:100A2800D0040024FC03002400000000F0EE407A0B
:100A38004FF07C53F7EE006A00229FED0C0A4360EA
:100A480086EEA77AC3608261C0ED047A80ED020A5F
:100A580010B5044680ED057A10F026FE002240F21B
:100A6800011384ED070A2270238510BD0000C842D7
:100A7800F8B5002129482A4C00272A4D4FF07E5608
:100A88002DED028B00F0C8F90421244800F0EAF8A3
:100A9800224800F0E3F8B0EE408A234800F09EF8C0
:100AA8002046B0EE480AFFF7C1FF9FED200A204616
:100AB800277084ED020A10F0F7FDF0EE407A4FF04F
:100AC8007C53B0EE480A28466360C4ED077AFFF706
:100AD800ADFF01239FED160A2846164C2B7085EDB5
:100AE800020A10F0E1FDF0EE407A2046B0EE480A26
:100AF8006E60C5ED077AFFF799FF9FED0F0A204654
:100B0800277084ED020A10F0CFFD0C49034884EDEC
:100B1800070A666000F09EF8FEE700BF3004002474
:100B2800D0040024A4040024280400240000DC438A
:100B3800CDCCCC3DFC03002400004842AD090008A0
:100B480010B500231A486FF0F4144FF60B71436187
:100B5800036243660367174A8165C0E90034C0E948
:100B68000244154CC0E90A13C0E90F13C0E90C335D
:100B7800C0E91133C0E91733104910F09BFD204636
:100B880000F028F80B4A0E49204610F093FD0D4955
:100B9800084A0D4810F08EFD064A0A490B4810F025
:100BA80089FD044A07490A48BDE8104010F082BD93
:100BB800300400240000002428040024A5090008AB
:100BC800E10B0008A9090008D0040024A4040024AB
:100BD800FC030024704700BF704700BF0023038058
:100BE800704700BFF5EE400AB0F90030F1EE10FA98
:100BF80000D1CBB19FED0D7A60EE870A20EE070A8F
:100C0800FDEEE00ABDEEC00A10EE902A03FA82F368
:100C180010EE102A12B2534007EE903AF8EEE77A37
:100C280087EE870AC0ED017A704700BF00FEFF46D5
:100C3800DFED077A20EE270ABDEEC00A10EE103A63
:100C48001BB207EE903A0380B8EEE70A704700BF80
:100C580000FEFF46143001F009BA00BF143001F05D
:100C680001BA00BF38B500F1140504462DED028B1A
:100C7800284601F0E9F9284601F0F4F92846B0EED3
:100C8800408A01F0DDF9D0ED007AF8EE677A88EE57
:100C9800277ABDEC028B84ED1B7A38BD10B540F283
:100CA80003338EB000244FF60B7240F20341ADF8C7
:100CB800083009A80123ADF81020ADF824202246F9
:100CC800ADF80C100094029907940C94CDE90544F2
:100CD800CDE90A4401F0E4FA04A801232246039965
:100CE800009401F0DDFA09A801F0C0FB10B9012059
:100CF8000EB010BD04A801F0B9FBA0420CBF022041
:100D080020460EB010BD00BF2DE9F04103239AB074
:100D18004FF0010800254FF60B740746CDE914384B
:100D2800394BADF84C40CDE91053A3F19F63A3F5BF
:100D38007D43CDE916581293FFF7B0FF40450646AC
:100D480023D0022842D040F60132304B07F1580038
:100D58000BACADF82C200B991895CDF86480CDF824
:100D68004A3000F0DBF810A907F1700002F0D8FC57
:100D7800274B0FCB84E80F003A6F214607F1140088
:100D880001F026F91AB0BDE8F08110231F4A06A920
:100D980006908DF828300BAC1E4BCDF84A200793EF
:100DA8000295CDE91805CDE9080502A801F0EEFC89
:100DB8000823029A03A92046ADF80C608DF80E505E
:100DC800049605930B9500F0E9F8CCE740F601335B
:100DD800ADF82C4000200BACADF8183001210B4BBE
:100DE80042460095CDF84A302B460E95CDE91801BC
:100DF80006992046CDE90C5501F052FA29462046BD
:100E080001F040FBAFE700BF04020404040604033A
:100E1800A81901080704010B2DE9F04704462DED38
:100E2800028B82B0002949D0012140F2011200232F
:100E38000091ADF804208DF80630354A0127354B6E
:100E480004F10409344904F13C08626040F202727A
:100E5800A36040F60663E16004F1280A2285A387AF
:100E68002782E762276403F035F8054602F088FE1A
:100E78006946064650BB4DB304F150008DF8067024
:100E880002F0AAFF072D3ED104F114052046FFF712
:100E98003BFF284601F0E6F82846B0EE408A01F00C
:100EA800CFF8D0ED007AF8EE677A88EE277A84EDED
:100EB8001B7A02B0BDEC028BBDE8F08740F201134B
:100EC80000918DF80610ADF80430B6E704F1500033
:100ED80002F082FF072D13D04946204602F02CF875
:100EE8000EB9002DD0D15146504601F0F3F84046D6
:100EF800414601F0EFF804F1120000F079F9C3E778
:100F0800002EF0D1C0E74946204602F015F8BBE7AD
:100F18000508050905070506050A060630B585B062
:100F2800002504460122ADF80C102B4603990095C4
:100F380001F0B6F90121204601F0A4FA012002F0DF
:100F48001DFE2946204601F09DFA012002F016FEFA
:100F58000121204605B0BDE8304001F093BA00BF3A
:100F680010B5C2F3002384B00C46017C8DF80D2027
:100F780043EA4402FA2402238DF80C2003AA0094C1
:100F880001F09CFC18B10124204604B010BD0446B1
:100F98000A2002F0F3FD204604B010BD034670B5E8
:100FA80043F8042B044684B007C983E80700A379F3
:100FB80083B91A210B461E22FA2523742046ADF860
:100FC8000C20022303AA009501F078FC28B1012027
:100FD80004B070BD1B210B46EDE70A2002F0CEFDE0
:100FE8004FF4B85200950223ADF80C20204603AA0E
:100FF800217C01F063FC0028E9D10A2002F0BEFD43
:1010080041F2027200950223ADF80C20204603AA93
:10101800217C01F053FC0028D9D10A2002F0AEFD52
:10102800042200950223ADF80C20204603AA217C57
:1010380001F044FC0028CAD10A2002F09FFD0622D4
:1010480000950223ADF80C20204603AA217C01F06C
:1010580035FC0028BBD10A2002F090FD41F208229D
:1010680000950223ADF80C20204603AA217C01F04C
:1010780025FC0028ABD10A20064602F07FFD00952A
:10108800022303AA217C2046ADF80C6001F016FC6F
:1010980000289CD1304602F071FD009522790C237E
:1010A8002046002A8DF80C3003AA4FF0020314BF23
:1010B800622142218DF80D10217C01F0FFFB0028F0
:1010C80085D1304602F05AFD2279D4E902310B432A
:1010D800DBB20AB943F0400362790AB143F0200356
:1010E8000E22FA258DF80D302046009502238DF842
:1010F8000C2003AA217C01F0E1FB00287FF467AFF4
:101108000A2002F03BFD102200950223ADF80C20C6
:10111800204603AA217C01F0D1FB00287FF457AFB9
:101128000A2002F02BFD122100950223ADF80C10C5
:1011380003AA217C204601F0C1FB00287FF447AFB9
:101148000A2002F01BFD012209212046FFF708FFB3
:10115800003818BF01203BE7F0B5102387B0234CB7
:10116800012200250126002702A920460195CDE984
:1011780002234FF48052CDE904670AF0CFF86420C7
:1011880003F096F802A94FF480522046CDE904678F
:1011980002261027CDE902670AF0C0F803221023BF
:1011A80002A92046CDE9022300230422CDE9042325
:1011B8004FF480520AF0B2F840F23223042202A916
:1011C800019310232046CDE90223019A01230592B9
:1011D8004FF4805204930AF0A1F840F60601204625
:1011E8000AF0BCF8284607B0F0BD00BF040500248B
:1011F8001C4B00221C494FF0400C30B5054689B005
:101208000220596007219A601A620124DA620A22D0
:101218004FF4006EDC6006922022CDE90001042024
:101228000821CDE9020103201021CDE9040108209D
:101238006946C3E904024FF4C072181DC3E906C227
:101248004FF48052C3E909E20AF03EF838B928465B
:10125800FFF782FF003818BF012009B030BD2046D3
:1012680009B030BD0005002440410052614A002108
:10127800D0B513688EB00A91002B40F0B9805E4B50
:1012880001214FF683700C2411600221D3F8D42079
:101298000026032742F48052C3F8D420D3F8D42080
:1012A80002F480520092009AD3F8E02042F0100233
:1012B800C3F8E020D3F8E02002F010020192019A6E
:1012C800D3F8E02042F04002C3F8E020D3F8E02051
:1012D80002F040020292029AD3F8E02042F008029B
:1012E800C3F8E020D3F8E02002F008020392039A42
:1012F800D3F8E02042F48072C3F8E020D3F8E0206D
:1013080002F480720492049AD3F8E02042F080023A
:10131800C3F8E020D3F8E02002F080020592059A95
:10132800D3F8E02042F02002C3F8E020D3F8E02010
:1013380002F020020692069AD3F8E02042F0040256
:10134800C3F8E020D3F8E0300C9403F004030793CB
:101358000323079A0B93CDE9080108A9274804F04D
:1013680027FB48F23712022308A925480C94CDE937
:101378000823CDE90A6704F01BFB4CF20372022331
:1013880008A920480C94CDE90823CDE90A6704F0A0
:101398000FFB40F2FF62022308A91B480C94CDE919
:1013A8000823CDE90A6704F003FB4FF60C72022309
:1013B80008A916480C94CDE90823CDE90A6704F07A
:1013C800F7FA4FF63F02022308A911480C94CDE919
:1013D8000823CDE90A6704F0EBFA2022022308A9C2
:1013E8000A480C94CDE90A67CDE9082304F0E0FA2D
:1013F8000EB0D0BDFC04002400440258001002586E
:1014080000180258000C025800200258001C02580C
:10141800001402582DE9F04FDFF8108406460D46F7
:10142800144608F118002DED028B89B000AF02F0C8
:101438006FFAD8F8183073B3D8F81C30D8F804907D
:10144800002B43690BBF4FF0080A4FF0100A4FF00A
:10145800020B4FF0040BB9F1000F2AD0A200EA46A4
:10146800012B02F1070222F00702ADEB020D6846DC
:10147800ADEB020D694600F03F81022B00F0D680EB
:10148800002B6FD02246C847D5462437BD46BDEC51
:10149800028BBDE8F08FD8F81C30002BF5D0D8F8B7
:1014A80004904FF0080A4FF0020B4369B9F1000F9E
:1014B800D4D1FB61D8F80030BB61002BE5D0D5480A
:1014C80002F098FA6B46BBF1020F786108EE103A09
:1014D800FB6900F083816A465146A2EBC402954637
:1014E8006200EA46B2FBFBF2AAEBC40085460AEBAF
:1014F8008200EE46F861ADEB010DF8690EEB820C47
:10150800C7F810C0EC46ADEB010D00EB8201CCF83A
:101518000400CCF8081001EB82013869E946CCF8E0
:101528000C1000EB8201CCF800A001EB8202C9E9A3
:1015380000E0C9E90212012B00F06483022B00F0DD
:101548006C82002B00F08081620849466046BB69C6
:10155800984718EE103A24379D46BD46BDEC028BDD
:10156800BDE8F08F002C8DD01A46D8ED0C6A9FED9F
:10157800B27A8446331D36F922E00CF1080C07EEE6
:1015880090EA33F922E00232F8EEE77A944267EE05
:10159800877A67EEA67A4CED027A07EE90EAF8EEC3
:1015A800E77A67EE877A67EEA67A4CED017AE2D899
:1015B800F9612246C847984ED8ED0D6A0020F969AE
:1015C8002B1D9FED9E7A9FED9E6ADFED9E5A22E0CD
:1015D800F4EEC67AF1EE10FAC0F2C88447F6FE724D
:1015E800D1ED017A45F8202066EEA77AF4EEC77AA5
:1015F800F1EE10FA40F2F080F4EEC67AF1EE10FA4D
:10160800C0F2D58447F6FE7243F820200230083134
:1016180084427FF639AFD1ED007A66EEA77AF4EE10
:10162800C77AF1EE10FAD3D83246D9E7002C3FF446
:1016380029AFD8ED0C6A84469FED787A0022331DD5
:101648008E4656F822100CF1080C07EE901A53F843
:1016580022100232F8EEE77A944267EE877A67EE54
:10166800A67A4CED027A07EE901AF8EEE77A67EE62
:10167800877A67EEA67A4CED017AE2D8714622465F
:10168800C7F81CE0C847664ED8ED0D6A0020F96916
:101698002B1D9FED6A7A9FED6A6ADFF894C120E0FE
:1016A800F4EEC67AF1EE10FAC0F279843246D1ED42
:1016B800017A45F8202066EEA77AF4EEC77AF1EEB3
:1016C80010FA40F28780F4EEC67AF1EE10FAC0F212
:1016D8005E84324643F820200230083184427FF687
:1016E800D3AED1ED007A66EEA77AF4EEC77AF1EEC2
:1016F80010FAD5D86246DAE7002C3FF4C3AED8ED2D
:101708000C6A86469FED477A4FF0000C331D56F859
:101718002C200EF1080E82F40002A2F5000207EE5A
:10172800902A53F82C200CF1020CF8EEE77A82F498
:1017380000026445A2F5000267EE877A67EEA67A92
:101748004EED027A07EE902AF8EEE77A67EE877A8E
:1017580067EEA67A4EED017AD9D8F9612246C847D4
:10176800314ED8ED0D6A0020F9692B1D9FED337AB3
:101778009FED336ADFF8BCC01FE0F4EEC67AF1EEE5
:1017880010FAC0F2FC833246D1ED017A45F82020E8
:1017980066EEA77AF4EEC77AF1EE10FA18D9F4EEED
:1017A800C67AF1EE10FAC0F2DA83324643F8202006
:1017B8000230083184427FF667AED1ED007A66EEDA
:1017C800A77AF4EEC77AF1EE10FAD6D86246DBE7CC
:1017D8006246EBE762467DE7324615E7A100D6464A
:1017E8006208073121F00701ADEB010DEA46ADEBC8
:1017F800010D6946ADEB0E0D0AEB8200EC46ADEB30
:101808000E0D01EB8202F861E946CCE900A0C9E9B6
:10181800001290E6540500240280FFFF000000300B
:101828000082FF7F0000003482FF7F00380500241B
:10183800007E00807E0080FF0000003804FF7FBF2C
:1018480004FF7F3F00FEFF46002C00F0C982BBF179
:10185800020FD8F8242000F0FA827969C7F80490BA
:1018680002EB810E5FED0C5A8A00DCF808100EF1CD
:1018780004007A611A46DCF80C303B61331DD7F856
:1018880010903D61FD69C7E902CB8C46834636F965
:101898002210D8ED0C7A06EE101A33F9221006EE53
:1018A800901A3EF92210B8EEC66A07EE101AF8EE42
:1018B800E66A3BF92210B8EEC77A26EE256A66EE8C
:1018C800A56A27EE257A26EE276A66EEA76A27EE2E
:1018D800277A07EE901A51080232F8EEE77A0AEBF7
:1018E8008100944280ED006A05EB810067EEA57ADD
:1018F800C0ED006A0CEB810009EB810180ED007AF4
:1019080098ED0C7A67EE877AC1ED007ABFD8D7F8E0
:1019180004903D69D7E902CB60466208BB69494635
:101928009847D8F82C307A69D8ED0D6A1A441FED1B
:101938003D7A1FED3D6A2B1D904602F1040A5FEDCA
:101948003F5A0022A84ED9E900EC51E0F4EEC67ADD
:10195800F1EE10FAC0F2C78247F6FE7045F8220091
:101968000CEB0100D0ED007A66EEA77AF4EEC77AA8
:10197800F1EE10FA4BD9F4EEC67AF1EE10FAC0F295
:10198800BA8247F6FE70BBF1020F43F822002BD053
:10199800D9F808000844D0ED007A66EEA77AF4EE8C
:1019A800C77AF1EE10FA36D9F4EEC67AF1EE10FAEB
:1019B800C0F2CD8247F6FE7048F82200D9F80C0034
:1019C8000144D1ED007A66EEA77AF4EEC77AF1EE1B
:1019D80010FA1ED9F4EEC67AF1EE10FAC0F2AF8210
:1019E80047F6FE714AF82210023294427FF6B1ADF2
:1019F80051080EEB81008900D0ED007A66EEA77AD7
:101A0800F4EEC77AF1EE10FAA0D83046A6E73046D1
:101A1800B9E73146E6E73046CEE7002C00F0E08132
:101A2800BBF1020FD8F8243000F0E1817A69DCF8C4
:101A3800081003EB820EC7F804909300DFED6B5A91
:101A48000EF1040000227B61DCF80C303B61331D91
:101A5800D7F810903D61FD69C7E902CB8C468346F3
:101A680056F82210D8ED0C7A07EE101A53F8221007
:101A7800B8EEC76A07EE101A5EF82210F8EEC76AC9
:101A880007EE101A26EE256A5BF82210B8EEC77A20
:101A980066EEA56A26EE276A27EE257A66EEA76A1D
:101AA80027EE277A07EE901A51080232F8EEE77A05
:101AB8000AEB8100944280ED006A05EB810067EE35
:101AC800A57AC0ED006A0CEB810009EB810180ED7D
:101AD800007A98ED0C7A67EE877AC1ED007ABFD864
:101AE800D7F804903D69D7E902CB60466208BB6924
:101AF80049469847D8F82C307A69D8ED0D6A1A44C7
:101B08009FED3E7A9FED3E6A131D9246DFF8E4C0D2
:101B18000022FB612B1D364ED9E9008E4EE0F4EE13
:101B2800C67AF1EE10FAC0F2FC81304645F8220080
:101B38000EEB0100D0ED007A66EEA77AF4EEC77AD4
:101B4800F1EE10FA49D9F4EEC67AF1EE10FAC0F2C5
:101B5800EF813046BBF1020F43F822002AD0D9F8B2
:101B680008000844D0ED007A66EEA77AF4EEC77A4A
:101B7800F1EE10FA35D9F4EEC67AF1EE10FAC0F2A9
:101B8800C98130464AF82200D9F80C000144D1ED49
:101B9800007A66EEA77AF4EEC77AF1EE10FA1ED94B
:101BA800F4EEC67AF1EE10FAC0F2AD813146F8696A
:101BB80040F82210023294427FF6CBAC510808EB71
:101BC80081008900D0ED007A66EEA77AF4EEC77A34
:101BD800F1EE10FAA3D86046A8E76046BAE7614676
:101BE800E5E76046CEE700BF0280FFFF0000003057
:101BF8000082FF7F007E00800000003404FF7FBF6A
:101C080004FF7F3F002C00F0EB807A690021D8F8B0
:101C18002430C7F8109003EB820ED7F81C9093007D
:101C2800FD610EF104021FED0C6A7B61331D154640
:101C380056F821204808D8ED0C6ABBF1020F82F44F
:101C48000002A2F5000207EE902A53F8212082F440
:101C58000002B8EEE77AA2F5000227EE067A07EE50
:101C6800902A0AEB8002F8EEE77A27EE267A67EEEA
:101C7800867A82ED007A09EB80024FEA800067EEEF
:101C8800A67AC2ED007A27D05EF8212082F40002FD
:101C9800A2F5000207EE902A55F8212082F40002EE
:101CA800B8EEE77AA2F5000227EE067A07EE902A48
:101CB800DCF80820F8EEE77A024427EE267A67EE89
:101CC800867A82ED007A98ED0C7ADCF80C2067EEC3
:101CD800877A0244C2ED007A02318C42A8D8D7F83C
:101CE800109060466208BB694946FD699847D8F874
:101CF8002C307A69D8ED0D6A1A441FED407A1FED31
:101D0800406A131D9246DFF8C4C20022FB612B1DF6
:101D1800AB4ED9E9008E4EE0F4EEC67AF1EE10FA39
:101D2800C0F2C580304645F822000EEB0100D0ED28
:101D3800007A66EEA77AF4EEC77AF1EE10FA49D97E
:101D4800F4EEC67AF1EE10FAC0F2BF803046BBF16D
:101D5800020F43F822002AD0D9F808000844D0ED31
:101D6800007A66EEA77AF4EEC77AF1EE10FA35D962
:101D7800F4EEC67AF1EE10FAC0F2AE8030464AF8B8
:101D88002200D9F80C000144D1ED007A66EEA77A5A
:101D9800F4EEC77AF1EE10FA1ED9F4EEC67AF1EE37
:101DA80010FAC0F28B803146F86940F822100232EE
:101DB80094427FF6CEAB510808EB81008900D0ED44
:101DC800007A66EEA77AF4EEC77AF1EE10FAA3D895
:101DD8006046A8E76046BAE76146E5E76046CEE7B1
:101DE800224649466046BB699847FFF7B2BBC7F829
:101DF80010B0002298ED0C6A331DDFED726AD7F837
:101E08001CB0786956F8221007EE901A53F8221081
:101E1800B8EEE77A07EE901A51080232F8EEE77A40
:101E280027EE267A0AEB810E94420BEB810167EECE
:101E3800A67A27EE067A67EE867A8EED007AC1EDED
:101E4800007ADFD88300D7F810B07B614DE61A46D8
:101E5800C7F810B098ED0C6A331DDFED5B6AD7F850
:101E68001CB0786936F9221007EE101A33F92210DF
:101E780007EE901AB8EEC77A51080232F8EEE77A00
:101E880027EE267A0AEB810E94420BEB810167EE6E
:101E9800A67A27EE067A67EE867A8EED007AC1ED8D
:101EA800007ADFD88300D7F810B07B6134E5F0EE14
:101EB800675AFEEEE45A15EE900A34E7F0EE675AD8
:101EC800FEEEE45A15EE901A6EE7F0EE675AFEEE53
:101ED800E45A15EE900A3AE7F0EE675AFEEEE45A35
:101EE80015EE900A4BE767EEA57AFDEEE77A17EE56
:101EF800900A00B232E567EEA57AFDEEE77A17EEB2
:101F0800900A00B23FE5F0EE675AFEEEE05A15EE91
:101F1800901A4CE6F0EE675AFEEEE05A15EE900A7B
:101F280030E6F0EE675AFEEEE05A15EE900AFDE54F
:101F3800F0EE675AFEEEE05A15EE900A0AE667EEF2
:101F4800A57AFDEEE77A17EE901A09B24AE567EE30
:101F5800A57AFDEEE77A17EE900A00B22CE5F0EECE
:101F6800675AFEEEE45A15EE902A1FE467EEA57A4A
:101F7800FDEEE77A17EE902A12B2FFF731BBF0EECA
:101F8800675AFEEEE45A15EE902AFFF7FDBBF0EE15
:101F9800675AFEEEE05A15EE902AFFF79BBBF0EE6B
:101FA800675AFEEEE05A15EE902AFFF780BB67EEFF
:101FB800A57AFDEEE77A17EE902A12B2FFF724BB56
:101FC80082FF7F0000000030000000387E0080FFA4
:101FD80030B5184C154685B0046004F1080EEC467F
:101FE8000FC98EE80F00D4ED047AF5EEC07A8CE8BC
:101FF8000F00F1EE10FA1ADDB7EE006A94ED057ADB
:1020080027EE277AC6EE276A84ED0D7AC4ED0C6AAE
:102018006DB1204640F8185F01F07AFC0649036963
:102028000020064A2162A262E36005B030BD0120AB
:1020380005B030BD38050024002000300000003015
:1020480000680830704700BFB1F5807F03680A4612
:1020580028BF4FF48072B1F5807F9A6094BF00204A
:10206800012070470068183001F0B2BC30B5046830
:1020780083B00D46E3694BB1A3680020E26A616A48
:102088009B00009004F11C0001F044FCA368074881
:10209800A26A9B00216A009004F1180001F03AFC42
:1020A8000020C4E9005003B030BD00BF1D14000873
:1020B80010B4074B4FF07E513024002203201961E1
:1020C8009C60D8605DF8044B5961C3E906227047EB
:1020D8003805002484460FC98CE80F009CF80030AE
:1020E8000B2B30D09CF801200F2A2CD8022900B5E0
:1020F80091B041D0032902D0012900D000210C91D0
:10210800DCF80810012902D0022918BF00210D911E
:10211800DCF80C10022904D0032902D0012918BFC9
:1021280000210A2B0E910FD85B4800EB8320CCF8D6
:1021380010000A2B17D8DFE803F0A0928476685ABB
:102148004C3E3022090070470020F0E7534BD3F88B
:10215800E01041F48061C3F8E010D3F8E03003F4F4
:1021680080630A930A9B01230BA993400B9303F006
:102178001FFC11B05DF804FB11210C91C0E7474B1F
:10218800D3F8E01041F40071C3F8E010D3F8E03060
:1021980003F400730993099BE5E7404BD3F8E0107B
:1021A80041F48071C3F8E010D3F8E03003F4807391
:1021B8000893089BD7E7394BD3F8E01041F080012A
:1021C800C3F8E010D3F8E03003F080030793079BCF
:1021D800C9E7324BD3F8E01041F04001C3F8E010F2
:1021E800D3F8E03003F040030693069BBBE72B4B84
:1021F800D3F8E01041F02001C3F8E010D3F8E03044
:1022080003F020030593059BADE7244BD3F8E010BA
:1022180041F01001C3F8E010D3F8E03003F01003E8
:102228000493049B9FE71D4BD3F8E01041F008018D
:10223800C3F8E010D3F8E03003F008030393039BDE
:1022480091E7164BD3F8E01041F00401C3F8E01011
:10225800D3F8E03003F004030293029B83E70F4BAB
:10226800D3F8E01041F00201C3F8E010D3F8E030F1
:1022780003F002030193019B75E7084BD3F8E010C4
:1022880041F00101C3F8E010D3F8E03003F0010396
:102298000093009B67E700BF000002580044025803
:1022A80010B592B0ADF804100180C9B2149C0B2986
:1022B800C460C0E901233FD090F801C0BCF10F0F02
:1022C8003AD8022A3FD0032A02D0012A00D000229D
:1022D8000E92012B02D0022B18BF0023022C0F9361
:1022E8002CD0032C2AD0012C28D000230A291093A3
:1022F80027D85C4A02EB812202610A2914D8DFE858
:1023080001F0A39587796B5D4F4133250600564B45
:10231800D3F8E01041F48061C3F8E010D3F8E0305E
:1023280003F480630C930C9B01230DA9104603FA58
:102338000CF30D9303F03CFB12B010BD0A29109466
:10234800D7D90022D8E711220E92C2E7464BD3F81C
:10235800E01041F40071C3F8E010D3F8E03003F462
:1023680000730B930B9BDFE73F4BD3F8E01041F46E
:102378008071C3F8E010D3F8E03003F480730A9357
:102388000A9BD1E7384BD3F8E01041F08001C3F83D
:10239800E010D3F8E03003F080030993099BC3E70A
:1023A800314BD3F8E01041F04001C3F8E010D3F806
:1023B800E03003F040030893089BB5E72A4BD3F8B5
:1023C800E01041F02001C3F8E010D3F8E03003F04A
:1023D80020030793079BA7E7234BD3F8E01041F0AE
:1023E8001001C3F8E010D3F8E03003F010030693AF
:1023F800069B99E71C4BD3F8E01041F00801C3F89D
:10240800E010D3F8E03003F008030593059B8BE751
:10241800154BD3F8E01041F00401C3F8E010D3F8ED
:10242800E03003F004030493049B7DE70E4BD3F8DC
:10243800E01041F00201C3F8E010D3F8E03003F0F7
:1024480002030393039B6FE7074BD3F8E01041F0B7
:102458000101C3F8E010D3F8E03003F00103029360
:10246800029B61E7000002580044025808B50121A8
:1024780043780069994089B203F09CFC003818BF82
:10248800012008BD01230A464178006903FA01F1D9
:1024980089B203F095BC00BF10B5002386B01222A4
:1024A80004460493CDE902230368022B1FDC002BAA
:1024B80001DB0423059323790A2B1FD8114800EB6D
:1024C80083206279012301A99340019303F070FAF4
:1024D800A3790A2B14D80B4800EB8320E279012357
:1024E80001A99340019303F063FA06B010BD032BD2
:1024F800E1D10623059323790A2BDFD90020E0E7F1
:102508000020EBE700000258634A0368934210B5C5
:102518008CB028D0614A934258D0614A934200F067
:102528009480604A934201D00CB010BD5E4C5F4865
:10253800D4F8E03043F00203C4F8E030D4F8E030D7
:1025480003F002030A930A9BFFF7A6FFD4F8F430BE
:1025580043F08003C4F8F430D4F8F43003F0800377
:102568000B930B9BE0E7504C5148D4F8E03043F014
:102578000203C4F8E030D4F8E03003F0020301931A
:10258800019BFFF789FFD4F8E83000221F2043F4AD
:1025980000131146C4F8E830D4F8E83003F4001307
:1025A8000293029BD4F8D83043F00103C4F8D83022
:1025B800D4F8D83003F001030393039B01F0A2FE83
:1025C8001F200CB0BDE8104001F0DABE364C394887
:1025D800D4F8E03043F08003C4F8E030D4F8E030B9
:1025E80003F080030493049BD4F8E03043F0020323
:1025F800C4F8E030D4F8E03003F002030593059BFB
:10260800FFF74AFFD4F8E8300022212043F4800382
:102618001146C4F8E830D4F8E83003F48003069390
:10262800069BD4F8D83043F00103C4F8D830D4F866
:10263800D83003F001030793079B01F063FE2120C4
:102648000CB0BDE8104001F09BBE1B48FFF724FF0B
:10265800154B00224820D3F8E840114644F4000402
:10266800C3F8E840D3F8E84004F400040894089C50
:10267800D3F8D84044F00104C3F8D840D3F8D83090
:1026880003F001030993099B01F03CFE48200CB0BC
:10269800BDE8104001F074BE0054004000580040EE
:1026A800005C0040001C0058004402581408002434
:1026B8007405002454060024340700242DE9F0434F
:1026C8001A4B87B000254FF010099E46EC46184B70
:1026D800FF22E04667461A700EF118060EF1300424
:1026E800CDE90055CDE90255ADF80090BCE80F00E2
:1026F800CDE90455AEE80F009CE803000095ADF85D
:1027080000908EE80300B8E80F000FC69CE80300AD
:102718000095ADF8009086E803000FCF0FC49CE841
:10272800030084E8030007B0BDE8F0830400002438
:102738007005002410B5EFF3108472B6084B1A78B0
:10274800120602D504B962B610BD1878054B40B21E
:10275800C0EBC00003EB4010143002F0D7FDF1E7E6
:102768007005002474050024014804F063BC00BF10
:1027780000060024014804F05DBC00BFE006002408
:10278800014804F057BC00BFC00700242DE9F043FE
:102798000D6885B0404EC5EBC503032D4FEA4317BE
:1027A80006EB4313036041DCCA680C46012A3DD896
:1027B8004FEAC5084CD020689C466168A8EB05091B
:1027C800A2680DF1100EE36806EB4919ACE80F009A
:1027D800324B227C8CF80020D9F808C00FCB0EE9C8
:1027E8000F000EEB8503BCF1010F53F8103CC9F83C
:1027F8008C3032D0BCF1020F43D0BCF1000F36D080
:10280800227C8C37A8EB050500233744520006EBE1
:10281800451601213846C6F8AC30C6E92521C6E977
:102828002733C6E9293304F0C7F818B1012005B0E9
:10283800BDE8F0830146384604F008FC0028F5D1CD
:102848000146384604F02CFC003818BF0120EEE79A
:102858000A7C103A672AAED9E8E701F039FB104B39
:1028680098420CBF0F4B104BC9F89030C8E701F0E5
:102878002FFB0B4B98420CBF0C4B0D4BC9F89030FB
:10288800BEE701F025FB064B98420CBF094B0A4BEB
:10289800C9F89030B4E700BF74050024B8190108DE
:1028A800000E27072D0FB0303211D0205F43906003
:1028B8008A62E030200BA0101A0980102DE9F0413F
:1028C800D0F8008082B00D4617461E4608F18C04E9
:1028D800204604F0B7FB2028FAD1D8F80C3073B999
:1028E8006D002046089C33463A46A9B2009404F08D
:1028F800B9F8003818BF012002B0BDE8F081089B84
:1029080032463946204604F06BFAF2E7094B6FF07D
:10291800F41110225960C3F8E4101A7483F8F020F7
:10292800C3F8C41183F8D021C3F8A41283F8B022E5
:10293800704700BF7405002430B5002395B04FF4EC
:102948008071062204460B9306921393CDE90C136B
:10295800CDE90E33CDE9113301F0BCFA07282BD0AD
:1029680004F1100541F2883206A9284605F0D6FB85
:1029780028B10123184684F85C3015B030BD022216
:10298800022306A92846CDE9002310220123CDE918
:10299800022300224FF48003CDE9042305224FF0DF
:1029A800807306926A460F9341F2883305F022FD40
:1029B8000028DED115B030BD0323012084F85C3037
:1029C80015B030BD0000000070B50023A4B04FF072
:1029D80080724FF480750446ADF806300D93CDE94A
:1029E80010320122CDE90E53CDE91223CDE914337B
:1029F800002943D0F02300F1100508AEADF80630E9
:102A0800C02341F2883231462846089305F086FBF8
:102A180028B10123184684F85C3024B070BD41F217
:102A280088320DF10601284605F0E2FB034600282E
:102A3800EFD105224FF480711E93284616924FF06D
:102A480080721B9321931F9202AA9FED1F7BCDE9F1
:102A58001C13CDE922338DED027B9FED1D7B41F2E6
:102A6800883316A98DED047B9FED1B7B8DED067BCE
:102A780005F0C0FC0028CCD124B070BD00F11005D1
:102A880008AE612341F2883231462846089305F0A2
:102A980045FB0028BDD141F288320DF106012846D8
:102AA80005F024FC0028B4D1BDF80630204623F0F8
:102AB800780343F04003ADF80630FFF73DFF0028E8
:102AC8009ED0A6E7AFF300800000000001000000E0
:102AD800100000000100000000000000000040009D
:102AE8002DE9F04F00234FF4807501264FF08078D0
:102AF80004462DED028BABB08DF80730139321936C
:102B0800299314950E96CDF85C80CDE91533CDE95F
:102B18001863CDE91A33CDE92253CDE92433CDE941
:102B2800273306231C9301F0D5F9072808D004F1B0
:102B3800100741F288321CA9384605F0EFFA40B177
:102B48000123184684F85C302BB0BDEC028BBDE83D
:102B5800F08F4FF0020A4FF0020B4FF0050941F2D7
:102B6800883308AA1CA93846CDF89480CDF870900F
:102B78009FED2F8BCDE908AB4FF0000A4FF4800B87
:102B88008DED0A8BCDE90CAB05F034FC0028D7D1CC
:102B980041F2883238460EA905F0C0FA0028CFD194
:102BA800402341F288320DF1070138468DF807308D
:102BB80005F01EFB0028C3D141F288330EA902AAF2
:102BC8003846CDF83890CDF85C809FED1B7BCDE979
:102BD80006AB8DED027B9FED1A7B8DED047B05F036
:102BE80009FC03460028ABD1CDF870904FF00109DD
:102BF800CDF894804FF00008219308AA29931CA9C6
:102C080038462295CDE92333CDE9273341F288337D
:102C18008DED0A8BCDE90CABCDE9088905F0EAFB0F
:102C2800002891D0304684F85C608DE7AFF30080CF
:102C380010000000010000004000000043000000F8
:102C480000800000010000002DE9F04F00234FF440
:102C5800807601254FF0807804462DED028BABB0CD
:102C6800CDE9153313932193299314960E95CDF836
:102C78005C80CDE91853CDE91A33CDE92263CDE95B
:102C88002433CDE9273306231C9301F023F90728C1
:102C980008D004F1100741F288321CA9384605F023
:102CA8003DFA40B10123184684F85C302BB0BDECE6
:102CB800028BBDE8F08F4FF0020A4FF0020B4FF085
:102CC800050941F2883308AA1CA93846CDF8948032
:102CD800CDF870909FED308BCDE908AB4FF0000A2E
:102CE8004FF4800B8DED0A8BCDE90CAB05F082FB20
:102CF8000028D7D141F2883238460EA905F00EFADD
:102D08000028CFD1402341F288320DF1070138461F
:102D18008DF8073005F06CFA0028C3D19DF807300C
:102D280008AA0C90FF2008934FF400430EA90B95B6
:102D3800CDF83890CDF85C80CDE909034FF48003D5
:102D480038460D9341F2883305F054FB03460028BA
:102D5800A8D10022219329931CA938462296CDF8A0
:102D68007090CDF89480CDE92333CDE92733012342
:102D7800CDE9022341F2883302AA8DED048BCDE917
:102D880006AB05F037FB002890D0284684F85C5045
:102D98008CE700BFAFF300801000000001000000C6
:102DA80070B50122AAB004460D465F48C02103F061
:102DB80007F800265D4B06965B4895FAA5F5CDE920
:102DC8000466D3F8E02042F02002C3F8E020C022D5
:102DD800D3F8E03003F0200301930123019902A9FD
:102DE800CDE9022302F0E4FD142001F061FA324635
:102DF800C0214D4802F0E4FF142001F059FA0122E5
:102E0800C021494802F0DCFF142001F051FA0123E7
:102E1800474AE6612261C4E90533002D77D0B5FA47
:102E280085F1013900234FF4807604F11005C4E9D7
:102E380008162846C4E90B3305F002F930B101231E
:102E48001D4684F85C3028462AB070BD662316906B
:102E5800179041F2883213900EA91B900E93CDE97A
:102E68001460CDE91900284605F058F90028E6D184
:102E780099230EA941F2883228460E9305F04EF99F
:102E88000028DCD105230121249008AA219027904D
:102E98001C934FF08073CDE92260CDE92800102003
:102EA800259341F28833CDE90A019FED1D7B00206F
:102EB8004FF48001CDE90C011CA928468DED087B53
:102EC80005F098FA0028BAD12046FFF7BDFE002881
:102ED800B5D1284605F010F905460028AFD1237969
:102EE8000A2B18D963790121994002F09BFEA37936
:102EF8000A2B0ED80F4800EB83200126E17906FA49
:102F080001F102F08FFE266684F864609BE71F21BA
:102F180088E70020F1E7074800EB8320E2E700BFDD
:102F2800000000000100000000140258004402588C
:102F380000500052000002582DE9F041684CA2B040
:102F48000D46046000F0C6FF07284BD028682346CA
:102F5800AA68696807C3AA89184620F8042B267B43
:102F6800677B05F0C9F8002834D1012E94F8643045
:102F780014BF4FF480154FF400052366002B39D099
:102F8800584B95FAA5F523610123C4E905330023BD
:102F9800E361002D6ED0B5FA85F1013900234FF4B5
:102FA80080785148C4E90818C4E90B3305F048F89B
:102FB80080B966230B90139041F2883206A90693D4
:102FC800CDE90C80CDE90E00CDE91100464805F0A9
:102FD800A5F8A0B101231D4684F85C30284622B02C
:102FE800BDE8F08101250323284684F85C3022B02F
:102FF800BDE8F08129462046FFF7D2FEC0E79923B5
:1030080041F2883206A93848069305F087F8002867
:10301800E0D105231C9019906A4614934FF08073F1
:10302800219014A91D9341F288339FED277BCDE9A8
:103038001A80CDE91F008DED007B9FED257B2A4886
:103048008DED027B9FED247B8DED047B05F0D2F99D
:103058000028BFD131462248FFF7B6FC0028B9D175
:103068001F48FFF73DFD05460028B3D127B10223CD
:103078002366B3E71F2191E7EB230026002718906A
:1030880014934FF440631F9006AA1B934FF4005308
:10309800209014A917934FF4404313481C93A0237E
:1030A800CDF868801693062319934FF08053219327
:1030B8004FF04073CDE906671D9305F013FA002819
:1030C800D5D087E7AFF300800000000001000000C2
:1030D8001000000001000000000000000000400097
:1030E800F408002400500052040900245E4B0268D2
:1030F8002DE9F0419A428CB04FF00004CDE9074425
:10310800CDE909440B9402D00CB0BDE8F081574BCF
:10311800574DD3F8D420574F42F48042564EDFF82B
:103128005C81C3F8D420D3F8D42002F48042009202
:10313800009ADA6F42F48042DA67DA6F22F480424A
:10314800DA67D3F8E02042F04002C3F8E020D3F871
:10315800E02002F040020192019AD3F8E02042F008
:103168002002C3F8E020D3F8E02002F02002029207
:10317800029AD3F8E02042F01002C3F8E020D3F816
:10318800E02002F010020392039AD3F8E02042F004
:103198000202C3F8E020D3F8E03003F002030493FE
:1031A800049B22E014F0FC0252D103F1200155F8EF
:1031B800211008780A2839D891F801C0012109920C
:1031C80007EB802201FA0CF107910221CDF8148057
:1031D800089103210A910CA90B4413F81C3C07A978
:1031E800104601340B9302F0E3FB2A6EE3B2002A87
:1031F800D8D0052B2CD803F11A0255F822100A78DA
:103208000A2A18D9497801228A4002210792002205
:10321800CDE9081203210A910CA90B4496E8030092
:103228000590ADF8181013F81C3CD8E74878012130
:1032380009928140C8E74878012107EB8222814042
:10324800022007910021CDE9080103210A91E3E753
:1032580000225C20114601F055F85C2001F090F83E
:103268000CB0BDE8F08100BF005000520044025885
:10327800F408002400000258EC1901080A0A090A97
:103288000268F8B5194B9A4200D0F8BD184A0024D4
:10329800184F0125D2F8D430174E23F48043C2F8D2
:1032A800D43011E014F0FC0F1BD157F821301A78F4
:1032B8000020597801340A2A05FA01F198BF06EB73
:1032C800822089B202F0AEFCE3B23A6E03F120012B
:1032D800002AE7D0052B03F11A0202D857F822304A
:1032E800E5E75C20BDE8F84001F058B8005000520E
:1032F80000440258F408002400000258014805F070
:103308007DB900BF040900240E4B6FF0F4120021B0
:10331800981C30B41C1D9D1D9A605D671C67C3E92D
:103328000022C3E9181103F10A0203F1080130BCB5
:10333800C3E91A30C3E91E12C3E92030C3E92212D7
:10334800704700BFF408002438B5036871B9026AF1
:1033580000F1280500F5AC74012A0CBF00214021BA
:103368008BBB1D4B5722C0F858310DE0426A00F163
:10337800C00500F5E874012A0CBF00214021EBB11B
:10338800164B5A22C0F8D03100232046C4E9012147
:103398004FF480524FF48061636262614FF480425F
:1033A800C4E903314FF48073C4E906234FF40033B2
:1033B800236201F059F958B1FFBEFEE7084B5822C5
:1033C800C0F8D031E0E7074B5922C0F85831DBE7A5
:1033D800C5E92044A56338BD1000024070000240D2
:1033E80028000240580002402DE9F043C28889B005
:1033F80081468388ADF800200089B9F80A10B9F829
:103408000C20ADF80230D9F81830ADF80400ADF84A
:103418000610ADF80820002B3FD0D9F81C70B7FA79
:1034280087F77F09012502236C460DF10A06DFF8AC
:1034380070800695CDE9043599F8042020788242F9
:10344800627818D0D9F80010F9B1012902D1F8B181
:103458000A2107910A2805FA02F203A994BF08EB8A
:1034680080200020039202F0A3FA0234A642E3D19E
:1034780009B0BDE8F08399F805109142E2D1002F18
:10348800F3D0D9F800100029DFD106210791E1E730
:10349800022A0CBF08210A21DBE70127C2E700BF87
:1034A80000000258534A0368934230B505468BB072
:1034B80055D02032934252D04F4A934204D0203202
:1034C800934201D00BB030BD4C4C4D48D4F8E0309D
:1034D80043F00103C4F8E030D4F8E03003F001030E
:1034E8000593059BD4F8E03043F00803C4F8E030B6
:1034F800D4F8E03003F008030693069BD4F8E030D4
:1035080043F04003C4F8E030D4F8E03003F040035F
:103518000793079BD4F8F03043F40003C4F8F03065
:10352800D4F8F03003F400030893089BFFF75CFF1E
:10353800D4F8D830296843F001032F4A3048C4F83A
:10354800D830891AD4F8D83018BF012103F0010304
:103558000993099B0BB0BDE83040FFF7F5BE274C37
:103568002848D4F8E03043F00103C4F8E030D4F838
:10357800E03003F001030093009BD4F8E03043F0FF
:103588001003C4F8E030D4F8E03003F010030193DE
:10359800019BD4F8E03043F04003C4F8E030D4F89D
:1035A800E03003F040030293029BD4F8F03043F478
:1035B8008003C4F8F030D4F8F03003F480030393A8
:1035C800039BFFF711FFD4F8D830296843F00103B3
:1035D800084A0C48C4F8D830891AD4F8D83018BF2B
:1035E800012103F001030493049B0BB0BDE83040B4
:1035F800FFF7AABE04580140045C01400044025889
:10360800E00B002484090024014801F07FBE00BFBC
:10361800DC0A0024014801F079BE00BF540B0024E5
:10362800014801F073BE00BF380D0024014801F0C5
:103638006DBE00BFB00D00241A4A0368934210B44F
:103648000BD02032934208D0174A934216D020322A
:10365800934213D05DF8044B7047144B0022D3F803
:103668005442C3F85822002CF4D0D3F84802D3E9C6
:10367800931223465DF8044B520818470B4B00225F
:10368800D3F8B044C3F8B424002CE3D0D3F8AC2466
:10369800D3F8A814D3F8A404520823465DF8044BC1
:1036A800184700BF04580140045C01408409002405
:1036B800184A0368934210B40BD02032934208D0C2
:1036C800154A934217D02032934214D05DF8044B28
:1036D8007047124BD3E994245208C3F85822002C9F
:1036E800F4D0D3E99201234601EB820100EB82007A
:1036F8005DF8044B1847094BD3F8AC24D3F8B04411
:103708005208C3F8B424002CE0D0D3F8A814D3F896
:10371800A404E8E704580140045C0140840900243B
:103728002DE9F0470C684FF41776774F86B004FB05
:1037380006F6012C07EB0608C0F8008000F39F800E
:1037480000230D468E46C446C8F85032C8E9923365
:1037580069A3D3E900236AA1D1E90001CDE90223D5
:1037680006AB03EB8403CDE9040153F810AC53F81E
:10377800089CBEE80F00ACE80F00BEE80F00ACE8FC
:103788000F009EE80300C8F828A0C8F8C0908CE88D
:1037980003002B69042B0CD8DFE803F078828C96A1
:1037A80003004FF41773594A03FB04739A64C3F870
:1037B800E020AA692B6A002A42D0002B4FF4177325
:1037C80008BF022203FB047318BF0322DA62012236
:1037D8001A63EA696B6A002A3FD1191E4FF41773FE
:1037E80018BF012103FB0473C3E931126969012978
:1037F80043D0022947D1032500214FF4177306F15E
:1038080028002A46019103FB0473002438445C64B1
:103818005C63DC65C3F8DC40C3F8CC40C3F8F44013
:10382800C3E90F44C3E91544C3E93544C3E93B443C
:10383800022307F0E9FA019900284FD0FFBEFEE7FE
:10384800191E4FF4177318BF012103FB0473C3E952
:103858000B12EA696B6A002ABFD0002B4FF417736A
:103868000CBF0222032203FB0473C3F8C420012205
:10387800C3F8C82069690129BBD10225BDE7012029
:1038880006B0BDE8F08700252946B6E74FF4177360
:103898004FF4FA5203FB04739A64C3F8E02088E7F4
:1038A8004FF417734FF47A5203FB04739A64C3F806
:1038B800E0207EE74FF417734FF4FA4203FB0473DA
:1038C8009A64C3F8E02074E74FF417734BF680321C
:1038D80003FB04739A64C3F8E0206AE706F1C000AA
:1038E80002232A46384407F08FFA0028C8D0FFBEC2
:1038F800FEE700BFAFF3008004580140045C0140BC
:1039080024580140245C0140840900240077010008
:103918000068704770B5046882B015460E46C4F852
:103928005032C4E99212069AC4F85422A269012AB4
:1039380026D0626A012A9AB211D0294604F1C00041
:10394800019207F01BFB236A019A012B10D029462C
:1039580004F1280007F012FB002002B070BD04F14A
:10396800C000019207F09CFB236A019A012BEED15B
:10397800314604F1280007F093FB002002B070BD27
:10398800226A012A9AB211D0294604F1280001922C
:1039980007F0F4FA636A019A012B10D0294604F162
:1039A800C00007F0EBFA002002B070BD04F1280057
:1039B800019207F075FB636A019A012BEED131463B
:1039C80004F1C00007F06CFB002002B070BD00BF1E
:1039D80003681B69042B05D8044A02EB830393EDA3
:1039E800000A70479FED020A704700BFF4190108EA
:1039F80000803B470368D3F858027047064B6FF0C6
:103A0800F4124FF60B71C3E901229981A3F86812E9
:103A1800C3E99822704700BF84090024704700BF9B
:103A280008B500F033FCBDE8084000F033BD00BF26
:103A3800064808B503680BB102F0C6F904480368E4
:103A48001BB1BDE8084003F057BB08BD5013002464
:103A5800400E0024064808B503680BB102F0B4F91B
:103A6800044803681BB1BDE8084003F045BB08BD26
:103A780050130024400E0024064808B503680BB113
:103A880002F0A2F9044803681BB1BDE8084003F03E
:103A980033BB08BD50130024400E0024364BDA6AAD
:103AA800520062D59A6A9A6A9A6A9B6A180600D581
:103AB80000BE314B9B6A990600D500BE2E4B9B6A0F
:103AC800DA0600D500BE2C4B9B6A1B0700D500BE4A
:103AD800294B9B6A980700D500BE274B9B6AD907DC
:103AE80000D500BE244B9B6A1A0400D500BE224BA9
:103AF8009B6A9B0400D500BE1F4B9B6AD80400D567
:103B080000BE1D4B9B6A190500D500BE1A4B9B6A67
:103B18005A0500D500BE184B9B6A9B0500D500BE10
:103B2800154B9B6AD80500D500BE134B9B6A9901BB
:103B380000D500BE104B9B6ADA0100D500BE0E4BC3
:103B48009B6A1B0300D500BE0B4B9B6A580300D52C
:103B580000BE094B9B6A990300D500BE064B9B6AC1
:103B6800DA0306D400BE00BEFEE7DB6A9B07FAD57F
:103B7800F8E700BEF6E700BF00ED00E000F098BBF4
:103B88000A4B9B6803F17843B3F5003F0BD3084B0E
:103B9800986848B19868012806D09868022803D028
:103BA8009B68032070470120704700BF00ED00E0CC
:103BB80000008038000000002DE9F041CEB0044636
:103BC8004C2200210AA80DF0E3FE2022002102A8C1
:103BD8000DF0DEFEC02200211EA80DF0D9FE022045
:103BE80004F048F92368012B4FF0000354D0584AD9
:103BF80002250193C820D16A564B21F00101D162F8
:103C0800D26A02F0010201929A6942F440429A6132
:103C18009B6903F440430193019B4E4A93699B04BB
:103C2800FCD54D490224002201268B6A04274FF057
:103C3800080823F0030323438B62052316900AA880
:103C480018934FF480331096179419941597CDF85C
:103C58006880CDE91B222122CDE91344CDE90A234E
:103C680004F06CFE00B1FEE73F220323294602A8B8
:103C7800CDE9022300220823CDE904234022402372
:103C8800CDE9062340234FF48062CDE9082305F0EF
:103C9800EFF90346B8B1FEE72E4A04250093F02059
:103CA80091692B4B41F440419161926902F4404281
:103CB8000092DA6A42F00102DA62DB6A03F0010379
:103CC8000093009BA9E7202226932E9380212C9213
:103CD8004FF48052319306253F931EA827923692BF
:103CE8004FF4803225914FF44011329247920022CE
:103CF8002895802540911021CDF888802B97209613
:103D08002A91CDE92F3440F2271329934FF4806389
:103D18002D930023CDE92346CDE93C234FF480744D
:103D28000C2344940224219307A3D3E90023CDE96B
:103D38003445CDE91E2305F087FC00B1FEE704F009
:103D4800BDF84EB0BDE8F0810F130F03000000006E
:103D580000040058004802580044025870B584B066
:103D6800012400F045FB4FF480764FF04052194B88
:103D780068460025ADF800400396CDE9012300F020
:103D880055FB19224FF0404368468DF808200193EF
:103D98008DF80F40ADF80D608DF801408DF80A5090
:103DA80000F044FB02230B2268468DF80F508DF873
:103DB80001304FF062538DF808200193ADF80D40A3
:103DC8008DF80A4000F032FB042000F01FFB04B01D
:103DD80070BD00BF0E00010330B50D46044685B026
:103DE800D1E9000184E8030000F020FAAB79002B48
:103DF80063D00BF031F9FEF761FC09F0E3FB0AF040
:103E0800CFFD2B795BB3304C636913F4803326D133
:103E1800C4F88430BFF34F8FD4F8801043F6E07EA7
:103E2800C1F34E3CC1F3C9014FEA4C1C0CEA0E0029
:103E38000B4640EA8372013BC4F860225A1CF8D151
:103E4800ACF1200C1CF1200FF0D1BFF34F8F636948
:103E580043F480336361BFF34F8FBFF36F8F6B7988
:103E6800B3B1194A536913F4003311D1BFF34F8F1B
:103E7800BFF36F8FC2F85032BFF34F8FBFF36F8F0E
:103E8800536943F400335361BFF34F8FBFF36F8F10
:103E98004FF0FF3200230024002569460B480292A8
:103EA8008DF80C30CDE9004509F0C0FF07480AF04D
:103EB80025F808F023FD05B030BD2046FFF77CFE4D
:103EC8002046FFF74BFF94E700ED00E03C0E00248E
:103ED80005F036BA1C4B9B6803F17842B2F5003FF7
:103EE80025D3B3F5803F20D303F16042B2F5003FFC
:103EF8001FD303F15C42B2F5002F1CD303F17042CB
:103F0800B2F5902F19D303F14842B2F5803F16D38A
:103F180003F18042B2F1806F13D303F1E043B3F5AC
:103F2800000F2CBF08200720704701207047002091
:103F3800704702207047032070470420704705200F
:103F480070470620704700BF00ED00E003480023DB
:103F5800034A044903600DF0ADBB00BF3C0E0024CA
:103F680000000024253A000810B4204C0022204B01
:103F780083B0D4F888101F4841F47001C4F8881041
:103F880019681D4C41F0010119601A61196808404F
:103F98001A4918609A61DA611A629A62DA621A63D7
:103FA8005A639A63DA631A645A64186820F48020A2
:103FB80018601A66D3F8DC2042F06042C3F8DC20AF
:103FC800D3F8DC300193019B23681940B1F1005FFD
:103FD80003D20B4B0122C3F80821044B4FF00062B7
:103FE8009A6003B05DF8044B704700BF00ED00E035
:103FF800004402587FEDF6EA0010005C0000FFFF65
:104008000080005100F2C441D0F8080507F0DCBF79
:1040180001EBC10300EB8303D0F80805D3F888222D
:1040280008F002B801EBC10300EB8303D0F80805E0
:104038009A6C08F033B800BFD0F8080508F0DCB86F
:10404800016910B5044619B1022900D0FEE7012123
:10405800D4F8080508F0B0F8D4F80805BDE8104011
:1040680008F07CB810B50446D0F8080508F0A8F8A0
:104078002268D2F8003E43F00103C2F8003E236AEA
:1040880023B1034A136943F00603136110BD00BF4F
:1040980000ED00E0D0F8080508F0A2B8D0F808054F
:1040A80008F0D0B8D0F8080508F0B6B8D0F8080578
:1040B80008F0DEB8D0F8080508F0DCB89446D0F867
:1040C800C8021A4608B5634603F0D0FD032802D893
:1040D800024B185C08BD032008BD00BF181A010870
:1040E800D0F8C80208B503F043FE032802D8024BF3
:1040F800185C08BD032008BD181A0108D0F8C802CA
:1041080008B503F079FE032802D8024B185C08BDF5
:10411800032008BD181A01080A06D0F8C83206D4C8
:1041280001EBC10103EB810191F87E02704701F0B8
:104138007F0101EBC10103EB810191F83E0070475B
:10414800D0F8C80208B503F07BFD032802D8024B5B
:10415800185C08BD032008BD181A0108D0F8C80269
:1041680008B503F0E3FD032802D8024B185C08BD2C
:10417800032008BD181A0108D0F8C80208B503F0D2
:10418800B3FD032802D8024B185C08BD032008BD04
:10419800181A0108D0F8000308F06ABBD0F8000329
:1041A80008F07EBBD0F8000308F086BB704700BF5C
:1041B800D0F8000308F06CBBD0F8000308F06CBB23
:1041C800D0F8D40308B502F079FA032802D8024BD4
:1041D800185C08BD022008BD1C1A0108704700BF02
:1041E8000F4B1B780BB90120704710B504464FF4EC
:1041F8007A700C4AB0FBF3F31068B0FBF3F000F0F0
:10420800E1F80F2C00D808B1012010BD002221468A
:104218004FF0FF3000F076F8034B00201C6010BD13
:10422800540000244C0000245800002410B503203A
:10423800124C00F055F804F07BFE114B11499A69B5
:104248009B69C2F3032203F00F038A5CCB5C02F084
:104258001F020D4903F01F03D04020FA03F3086042
:104268000E202360FFF7BCFF10B10124204610BDCB
:104278000446FFF7B3FF204610BD00BF50000024DE
:1042880000440258081A01084C000024034A044B51
:1042980011681B780B441360704700BF5416002444
:1042A80054000024014B1868704700BF54160024BE
:1042B80038B50446FFF7F6FF0546631C02D0044BE9
:1042C8001B781C44FFF7EEFF431BA342FAD338BD0B
:1042D80054000024014B1868000C70470010005C63
:1042E80006494FF6FF0C0002054BCA6800F4E0606F
:1042F80002EA0C0210430343CB60704700ED00E074
:104308000000FA051B4BDB68C3F3022300B5C3F1B9
:10431800070E03F1040CBEF1040F28BF4FF0040E82
:10432800BCF1060F1AD9033B4FF0FF3C0CFA03FC13
:1043380022EA0C024FF0FF3C00280CFA0EFC21EA9E
:104348000C0101FA03F141EA02010ADB09010A4BF7
:10435800C9B2034483F800135DF804FB0022134636
:10436800E8E700F00F000901044BC9B203441976CD
:104378005DF804FB00ED00E000E100E0FCEC00E08B
:10438800002807DB012300F01F01034A40098B4086
:1043980042F82030704700BF00E100E000280DDB44
:1043A8004309012200F01F000549203302FA00F0FA
:1043B80041F82300BFF34F8FBFF36F8F704700BFE3
:1043C80000E100E0431EB3F1807F0CD24FF0E02201
:1043D800002006494FF0F00C5361072381F823C0F1
:1043E8009061136170470120704700BF00ED00E045
:1043F800BFF35F8F044B00215A6A22F480325A625D
:10440800C3F89410704700BF00ED00E0064B40F081
:104418000100C3F894005A6A42F480325A62BFF32A
:104428004F8FBFF36F8F704700ED00E0174A437856
:10443800C2F89830017821B3436800B5C2F89C30BF
:10444800C37A90F80CC01B0690F80FE043EA0C738F
:1044580090F80AC00B43817B43EACC4390F80DC027
:1044680043EA8C4390F809C043EA4143017A43EA9E
:104478000E4343EA0C2343EA4103C2F8A0305DF837
:1044880004FBC2F89C10C2F8A010704700ED00E0D1
:10449800704700BF08B5FFF7FBFF08BD0268344B43
:1044A800344930B4344D354CAA4218BF9A420CBF37
:1044B800012300238A4208BF43F001033031A2429E
:1044C80008BF43F0010330348A4208BF43F00103B8
:1044D8003031A24208BF43F0010330348A4208BF9A
:1044E80043F0010301F55C71A24208BF43F00103E8
:1044F80004F55C748A4208BF43F001033031A242DC
:1045080008BF43F0010330348A4208BF43F0010377
:104518003031A24208BF43F0010330348A4208BF59
:1045280043F001033031A24208BF43F001038A423D
:1045380008BF43F0010313B9114B9A4213D1D3B208
:104548001049114C103BA1FB03515F2B0F4BC1F3DA
:10455800021103EA0203615C88BF0433C165836505
:10456800184630BC704722F0FF038365F8E700BFA8
:10457800100002404000024028000240580002405B
:10458800B8040240ABAAAAAA201A010800FCFFFF3F
:104598000368294A294930B4294D2A4CAB4218BF2F
:1045A80093420CBF012200228B4208BF42F0010255
:1045B8002831A34208BF42F0010228348B4208BFC9
:1045C80042F001022831A34208BF42F001028B42A7
:1045D80008BF42F0010212B91B4A934213D1DBB261
:1045E8001A4C1B4A0121083B1A4DA4FB034345669C
:1045F80002EB1312C3F30413920001FA03F30266E9
:10460800836630BC7047DAB21349144C1944103A27
:10461800A829A4FB02234FEA131300D80833104A31
:1046280003F01F0501210F4C1A44A940446692006B
:1046380081660266E5E700BF085402583054025804
:104648001C5402584454025894540258CDCCCCCC33
:104658000096001680580258F0FBFDBFABAAAAAA24
:104668000082001080080240F8B50446FFF71AFEE1
:10467800002C00F0778123680546924A934248D07F
:104688001832934245D030328F498B4218BF93423B
:1046980001F130010CBF012200228B4208BF42F019
:1046A800010218318B4208BF42F0010218318B42D7
:1046B80008BF42F0010218318B4208BF42F00102E4
:1046C80001F556718B4208BF42F0010218318B4246
:1046D80008BF42F0010218318B4208BF42F00102C4
:1046E80018318B4208BF42F0010218318B4208BFD3
:1046F80042F0010218318B4208BF42F00102183122
:104708008B4208BF42F001021AB9704A934240F046
:1047180098810022022184F8342084F835101A6820
:1047280022F001021A6006E0FFF7BCFD431B052BCF
:1047380000F2FF8023681A68D607F5D4D4E9022569
:1047480020692A43A1691D68024360690243E06940
:104758000A4302435E482840256A2A435D4D0243C6
:10476800606A042800F000812E685B4D3540B5F181
:10477800005F80F0BB801A605A6922F0070202438A
:104788005A612046FFF78AFEE26D3F2302F01F02BE
:104798009340836022684B4B50484B49824218BF74
:1047A8009A4200F130000CBF012300238A4208BF5F
:1047B80043F001033031824208BF43F00103303037
:1047C8008A4208BF43F001033031824208BF43F0F8
:1047D800010330308A4208BF43F0010301F55C71E0
:1047E800824208BF43F0010300F55C708A4208BFAB
:1047F80043F001033031824208BF43F001033030F7
:104808008A4208BF43F001033031824208BF43F0B7
:10481800010330308A4208BF43F00103303182423D
:1048280008BF43F0010330308A4208BF43F0010358
:104838002B49824208BF43F001032A488A4208BF35
:1048480043F001032831824208BF43F001032830B6
:104858008A4208BF43F001032831824208BF43F06F
:10486800010328308A4208BF43F0010328318242FD
:1048780008BF43F001038A4208BF43F0010313B99C
:10488800194B9A4218D12046FFF782FEA368802B65
:104898005CD06368A06EDAB2013BD4E91851072BEB
:1048A8002A60486059D8501E07286ED9626FD4E92B
:1048B8001B31002018604A6000200123606584F8DD
:1048C8003530F8BD1000024040000240B8040240F4
:1048D8003F8010FE0010005C0000FFFF280002402F
:1048E800085402581C540258945402586568A5F19B
:1048F80029061F2E24D94F3D032D01D842F48012DA
:104908001A6004285A6922F0070242EA00027FF47A
:1049180037AFE56AA06A0243002D3FF431AF0029A2
:1049280069D1012800F0888030F002017FF428AFB7
:1049380069E0202203230120626584F83530F8BD40
:10494800734D25FA06F6F507DAD5D7E70023A16EE9
:10495800D4E918026360036051600023C4E91B3383
:104968006367A9E70120F8BD2F68D4E90B562E43E9
:104978003243684E3E40B6F1005FB7D21A605A69BA
:1049880022F0070242F00402C4E72168624B634D3B
:10499800A94218BF994205F114050CBF0123002351
:1049A800A94208BF43F001031435A94208BF43F0E8
:1049B80001031435A94208BF43F001031435A94285
:1049C80008BF43F001031435A94208BF43F00103AF
:1049D8003BB9534B994204D0524B534913449B0063
:1049E80003E0524B524913449B0001228240C4E920
:1049F8001B3162675DE7B1F5005F0ED0022805D96B
:104A080003287FF4BDAEE9017FF5BAAE0123402249
:104A18001846626584F83530F8BD03283FF6B0AE15
:104A280001A151F820F000BF154A00080F4A0008FC
:104A3800154A0008414A0008B5F1C07F7FF4A0AECE
:104A4800E4E7354A35483B49834218BF934200F1B1
:104A580028000CBF012200228B4208BF42F001024D
:104A68002831834208BF42F0010228308B4208BF38
:104A780042F001022831834208BF42F001028B4212
:104A880008BF42F0010212B9254A934238D10022E8
:104A98000221294D84F8351084F834201A6815400D
:104AA800A268402A2AD0802A0CBF4FF480400020F8
:104AB800266AD4E90312D20842EAD102616942EABD
:104AC800D102A16942EAD102E16942EAD1021B4955
:104AD80042EA161219442A4302431948A0FB01016D
:104AE80020461A600B099B00E365FFF7D7FCE26DCF
:104AF800012302F01F02934043604BE61020D7E7E2
:104B0800402203230120626584F83530F8BD00BFD8
:104B18003F00C0C30000FFFF085402581C5402584D
:104B2800945402583F820010400902403F960016F4
:104B380040590258305402580F00FEFFF8ABFDA749
:104B4800CDCCCCCC002800F08281844690F834008B
:104B5800012800F07E8101202DE9F0439CF83540C2
:104B68008CF83400844208D04FF400620023CCF85B
:104B780054208CF83430BDE8F0830220DCF8004083
:104B8800554D8CF835000020544ECCF8540054484C
:104B9800AC4218BF844205F118050CBF0120002063
:104BA800AC4208BF40F001001835AC4208BF40F0E5
:104BB80001001835AC4208BF40F001001835AC427E
:104BC80008BF40F0010005F55675AC4208BF40F03B
:104BD80001001835AC4208BF40F001001835AC425E
:104BE80008BF40F001001835AC4208BF40F0010092
:104BF8001835AC4208BF40F001001835AC4208BF78
:104C080040F001001835AC4208BF40F001001835EB
:104C1800AC4208BF40F00100A5F59265AC4218BF50
:104C2800B4420CBF0125002501D000285AD02668BF
:104C3800DCF8589026F001062660002D7ED0DCF8BE
:104C480064603746DCF868607E60DCF86C7037B109
:104C5800DCF87060B646DCF87460CEF80460DCF806
:104C68005C604FF03F0E06F01F080EFA08FEC9F808
:104C780008E0266826F4802626606360DCF80830A1
:104C8800402B00F0E880A160E26015B9002800F030
:104C9800E880236823F01E0343F016032360DCF842
:104CA80040301BB1236843F008032360DCF8603010
:104CB8001A68D20303D51A6842F480721A601FB1C9
:104CC8003B6843F480733B602368002043F0010392
:104CD8002360BDE8F08300BF580002401000024086
:104CE80040000240644F654EDCF85890B44218BF4B
:104CF800BC4206F128060CBF01270027B44208BFB2
:104D080047F001071436B44208BF47F001071436CC
:104D1800B44208BF47F001071436B44208BF47F051
:104D28000107266826F001062660554EB44208BFE2
:104D380047F0010717B9534FBC4212D1DCF8646041
:104D48003746DCF868607E60DCF86C7037B1DCF8F8
:104D58007060B646DCF87460CEF8046000287FF412
:104D68007EAF464FDFF810E1744518BFBC420EF124
:104D7800140E0CBF01270027744508BF47F0010730
:104D88000EF1140E744508BF47F001070EF1140E1A
:104D9800744508BF47F001070EF1140E744508BFAB
:104DA80047F001070EF1140E744508BF47F00107DC
:104DB80017B9344FBC4254D1DCF85C60012706F0C7
:104DC8001F0E07FA0EF7C9F804706360DCF80830A4
:104DD800402B43D0A160E260236823F00E0343F028
:104DE8000A032360DCF84030002B2DD0236843F001
:104DF80004032360204B214A944218BF9C4202F1CD
:104E080028020CBF01230023944208BF43F001038A
:104E18001432944208BF43F001031432944208BF8D
:104E280043F001031432944208BF43F001031432E3
:104E3800944208BF43F001031432944208BF43F080
:104E48000103002B3FF440AFDCF86C702EE7012023
:104E5800704702207047A260E16016E7A260E16037
:104E6800BAE7236823F00E0343F00A032360DCF853
:104E78004030002BBAD1BDE71C54025808540258E0
:104E8800805402589454025870B50546FFF70AFA40
:104E9800002D00F0248195F83530022B40F0DD809C
:104EA8002C6806468F4B9048904A844218BF9C4213
:104EB80000F130008E490CBF01230023844208BF53
:104EC80043F001031830844208BF43F0010318304F
:104ED800844208BF43F001031830844208BF43F0FE
:104EE800010300F55670844208BF43F001031830EF
:104EF800844208BF43F001031830844208BF43F0DE
:104F080001031830844208BF43F00103183084427B
:104F180008BF43F001031830844208BF43F001037F
:104F28001830844208BF43F001031830844208BF98
:104F380043F001038C4218BF94420CBF01220022A7
:104F480002D0002B00F09080216821F01E01216022
:104F5800616921F080016161002A00F0B0802A6E49
:104F6800136823F480731360236823F0010323601C
:104F780005E0FFF797F9831B052B00F2A68023684D
:104F8800DB07F6D42A68574B57485A49824218BF5C
:104F98009A4200F148000CBF012300238A4208BF4F
:104FA80043F001033031824208BF43F0010330303F
:104FB8008A4208BF43F0010301F55C71824208BFD1
:104FC80043F0010300F55C708A4208BF43F0010317
:104FD8003031824208BF43F0010330308A4208BFB3
:104FE80043F001033031824208BF43F001033030FF
:104FF8008A4208BF43F001033031824208BF43F0C0
:1050080001038A4208BF43F0010318318A4208BFEE
:1050180043F0010333B9A1F59561354B9A4218BFA6
:105028008A426FD1EA6D3F23A96D02F01F029340B7
:105038008B60EB6ED5E91921516033B11A68D5E957
:105048001C1022F480721A6048600023012218465E
:1050580085F8352085F8343070BD80220023012082
:105068006A6585F8343070BD2268234922F00E0243
:105078002260224A8C4218BF944201F128010CBFD9
:10508800012200228C4208BF42F0010214318C42F6
:1050980008BF42F0010214318C4208BF42F00102FD
:1050A80014318C4208BF42F0010214318C4208BF0F
:1050B80042F001021AB9124A94427FF455AF296EA0
:1050C8000A6822F480720A604EE720210322002336
:1050D8000120696585F8343085F8352070BD0120D8
:1050E80070BD00BF5800024040000240100002405E
:1050F8002800024070000240085402581C5402580C
:1051080094540258E86D0121164B00F01F00164C0C
:105118008140A24218BF9A42A86D0CBF0123002308
:10512800416012481249824208BF43F00103283007
:105138008A4208BF43F001032831824208BF43F086
:1051480001038A4208BF43F0010314318A4208BFB1
:1051580043F00103002B7FF46CAF064B9A423FF4F7
:1051680068AF72E71C540258085402583054025869
:10517800445402589454025800285FD038B590F827
:1051880035200346022A55D10168574A914248D032
:105198001832914245D03032544C5548A14218BF7C
:1051A800914204F148040CBF01220022814208BF49
:1051B80042F001023030A14208BF42F0010230340F
:1051C800814208BF42F0010200F55C70A14208BFAD
:1051D80042F0010204F55C74814208BF42F001020A
:1051E8003030A14208BF42F001023034814208BF8A
:1051F80042F001023030A14208BF42F001023034CF
:10520800814208BF42F001023030A14208BF42F09B
:105218000102814208BF42F0010212B9354A9142A7
:105228000ED10422002083F835200B6823F00103F7
:105238000B6038BD802201205A6538BD01207047B7
:105248002D4A2E4D0868A94218BF91422C4C20F0D7
:105258000E0005F13C050CBF012200220860A142A6
:1052680008BF42F0010208682834A94208BF42F08A
:10527800010220F00100A14208BF42F001021434EB
:105288000860A14208BF42F001021E48814208BFDF
:1052980042F0010212B91C4A914217D101229D6DB8
:1052A800D3E91704216800F01F0021F480718240BF
:1052B80021606A60DA6ED3E91910486032B111686A
:1052C800D3E91C0421F48071116044600121002499
:1052D8001A6D83F8351083F834401AB11846904790
:1052E800204638BD104638BD10000240400002403C
:1052F80070000240B80402401C5402580854025876
:105308003054025880540258945402582DE9F043FE
:1053180000229C4B83B09C4E1D6881460192036815
:105328009A4A846D934218BFB342276808BF012682
:10533800216818BF002645D018329548834218BF07
:10534800934200F118000CBF01220022834208BFDB
:1053580042F001021830834208BF42F001021830BF
:10536800834208BF42F001021830834208BF42F06E
:10537800010200F55670834208BF42F0010218305E
:10538800834208BF42F001021830834208BF42F04E
:1053980001021830834208BF42F0010218308342EC
:1053A80008BF42F001021830834208BF42F00102F0
:1053B8001830834208BF42F001021AB9754A934275
:1053C80040F05082D9F85C10082201F01F0C02FA54
:1053D8000CF2174240F0888127FA0CF2D2070CD55C
:1053E8005A69100609D5012202FA0CF2A260D9F80E
:1053F800542042F00202C9F854204FF0040E0EFA6D
:105408000CF038425BD0002E4FD1614ADFF888811A
:10541800434518BF934208F130080CBF012200220F
:10542800434508BF42F0010208F11808434508BF88
:1054380042F0010208F11808434508BF42F0010292
:1054480008F11808434508BF42F0010208F55678EC
:10545800434508BF42F0010208F11808434508BF58
:1054680042F0010208F11808434508BF42F0010262
:1054780008F11808434508BF42F0010208F118086E
:10548800434508BF42F0010208F11808434508BF28
:1054980042F0010208F11808434508BF42F0010232
:1054A8001AB93C4A934240F019821A68920706D505
:1054B800A060D9F8542042F00402C9F85420102200
:1054C80002FA0CFC1CEA070F6CD0002E45D1304ABA
:1054D800314EB34218BF934206F130060CBF012289
:1054E8000022B34208BF42F001021836B34208BF97
:1054F80042F001021836B34208BF42F001021836E2
:10550800B34208BF42F0010206F55676B34208BF1F
:1055180042F001021836B34208BF42F001021836C1
:10552800B34208BF42F001021836B34208BF42F046
:1055380001021836B34208BF42F001021836B342DE
:1055480008BF42F001021836B34208BF42F0010218
:105558001AB9104A934240F0C9811A68100721D538
:10556800C4F808C01A68560300F14C811A68D205BD
:1055780003D41A6822F008021A60D9F840308BB1B7
:105588000CE000BF4C00002410000240280002403C
:1055980058000240B804024040000240484698477C
:1055A800D9F85C1001F01F0120268E403E4268D0D9
:1055B800D9F80020A54BA64FBA4218BF9A4207F166
:1055C80018070CBF01230023BA4208BF43F00103A8
:1055D8001837BA4208BF43F001031837BA4208BF68
:1055E80043F001031837BA4208BF43F001031837E4
:1055F800BA4208BF43F001031837BA4208BF43F064
:10560800010307F55677BA4208BF43F0010318377C
:10561800BA4208BF43F001031837BA4208BF43F043
:1056280001031837BA4208BF43F001031837BA42DA
:1056380008BF43F001031837BA4208BF43F001031B
:105648001837BA4208BF43F001031BB9814B9A428D
:1056580040F062811368DB0613D5A66099F83530EF
:10566800042B136800F0AE8013F4802F136800F049
:10567800D3801C0340F1DE80D9F83C300BB148469A
:105688009847D9F85430002B00F0B980D9F8543035
:10569800D8071FD5D9F80020042189F835101368D8
:1056A80023F0010313606C4BA3FB0535AD0A02E040
:1056B8001368D90704D5019B0133AB420193F7D98D
:1056C8001368DB074CBF0323012389F83530002317
:1056D80089F83430D9F84C30002B00F090804846D7
:1056E80003B0BDE8F0431847186840070AD51868A2
:1056F80020F004001860A260D9F8542042F001029A
:10570800C9F8542027FA0CF2D2077FF576AE534A2F
:105718005348834218BF934200F130000CBF012266
:105728000022834208BF42F001021830834208BFBA
:1057380042F001021830834208BF42F001021830DB
:10574800834208BF42F0010200F55670834208BF49
:1057580042F001021830834208BF42F001021830BB
:10576800834208BF42F001021830834208BF42F06A
:1057780001021830834208BF42F001021830834208
:1057880008BF42F001021830834208BF42F001020C
:105798001830834208BF42F00102002A7FF420AE8D
:1057A800002E7FF41DAE1A68042202FA0CF23A4267
:1057B80040F09480102202FA0CFC17EA0C0F3FF418
:1057C800F1AE84E623F016031360536923F08003D7
:1057D8005361D9F840309BB3136823F00803136072
:1057E8003F230125002203FA01F1D9F85030A160C6
:1057F80089F8355089F83420002B7FF470AF03B056
:10580800BDE8F0831B6818037FF5B7AED9F84830B8
:10581800002B7FF4C3AEC5E613F480737FF42CAF7E
:10582800116821F010011160012289F8343089F8DB
:10583800352021E7D9F84430002B7FF420AF20E74A
:10584800D9F84830002BC7D1CAE700BF1000024082
:1058580028000240B8040240B5814E1B580002409F
:10586800400002404E4A4F4DAB4218BF934205F1EB
:1058780014050CBF01220022AB4208BF42F001020E
:105888001435AB4208BF42F001021435AB4208BFE1
:1058980042F001021435AB4208BF42F00102143550
:1058A800AB4208BF42F0010212B93F4A9342A6D167
:1058B800D9F85C5004261A6805F01F05AE400E4260
:1058C80019D0570717D5100466604BD5D1034FD4AC
:1058D800D9F84830002B7FF402AF90E71A681022FD
:1058E80002FA0CFC17EA0C0F3FF45CAE1A68520778
:1058F8007FF558AE34E60226AE400E4211D0970727
:105908000FD56660140439D5D00343D4D9F8443090
:10591800002B7FF4E4AE72E713689F077FF5B1AE02
:105928009BE60826AE400E423FF469AF11077FF5AB
:1059380066AF1A68002122F00E021A600123D9F816
:105948004C2003FA05F56560C9F8543089F834101D
:1059580089F83530002A3FF452AF484603B0BDE815
:10596800F0431047920603D41A6822F004021A6022
:10597800D9F84030002B7FF4B2AE40E712F0200295
:1059880008D11968012421F00A01196089F8354005
:1059980089F83420D9F83C30002B7FF4A0AE2EE7EC
:1059A800085402581C54025894540258406D7047C9
:1059B8002DE9F04F0C6883B0002C00F0A6804FF062
:1059C800000C8E4F634601229A4012EA040E00F042
:1059D80095804D6805F0030909F1FF36012E40F264
:1059E8009780B9F1030F40F0D18009FA0CF26FEA01
:1059F8000208066815F4403F06EA080842EA080269
:105A080002607BD0D7F8F42023F0030803F00309E1
:105A180042F0020208F1B0484FEA8909C7F8F420B9
:105A280008F58068D7F8F42002F002020192019A82
:105A38000F22D8F8086002FA09F226EA0202704E2C
:105A4800B04229D006F58066B04200F0AC806D4EB9
:105A5800B04200F0AE806C4EB04200F09E806B4EBB
:105A6800B04200F0B2806A4EB04200F0B480694E95
:105A7800B04200F0A480684EB04200F0B280674E99
:105A8800B04200F0B480664EB0420CBF09260A2628
:105A980006FA09F942EA0902C8F808204FF0B042AC
:105AA800EE026FEA0E0812684FF0B04654BF08EADB
:105AB80002024EEA02023260AA0276684FF0B04251
:105AC80054BF08EA06064EEA06065660D2F8846015
